:020000040800F2
:10000000005000206D4A0008B5210008B721000803
:10001000B9210008BB210008BD2100080000000034
:10002000000000000000000000000000BF210008E8
:10003000C121000800000000C3210008C5210008FC
:10004000B54A0008B54A0008B54A0008B54A000894
:10005000B54A0008B54A0008B54A0008B54A000884
:10006000B54A0008B54A0008B54A0008B54A000874
:10007000B54A0008B54A0008B54A0008B54A000864
:10008000B54A0008B54A0008B54A0008B54A000854
:10009000B54A0008B54A0008B54A0008B54A000844
:1000A000B54A0008B54A0008B54A0008B54A000834
:1000B000B54A0008B54A0008B54A0008CD21000835
:1000C000B54A0008DD210008B54A0008B54A000815
:1000D000B54A0008B54A0008B54A0008B54A000804
:1000E000B54A0008B54A0008B54A000800000000FB
:1000F0000000000000000000000000000000000000
:0C01000000000000000000005FF808F1A3
:10011000034613F8012B002AFBD1181A0138704747
:1001200081F0004102E000BF83F0004330B54FEAA8
:1001300041044FEA430594EA050F08BF90EA020F15
:100140001FBF54EA000C55EA020C7FEA645C7FEAA8
:10015000655C00F0E2804FEA5454D4EB5555B8BFCB
:100160006D420CDD2C4480EA020281EA030382EA3C
:10017000000083EA010180EA020281EA0303362DCE
:1001800088BF30BD11F0004F4FEA01314FF4801CA1
:100190004CEA113102D0404261EB410113F0004FB3
:1001A0004FEA03334CEA133302D0524263EB43036A
:1001B00094EA050F00F0A780A4F10104D5F1200E08
:1001C0000DDB02FA0EFC22FA05F2801841F1000163
:1001D00003FA0EF2801843FA05F359410EE0A5F137
:1001E00020050EF1200E012A03FA0EFC28BF4CF068
:1001F000020C43FA05F3C01851EBE37101F000451E
:1002000007D54FF0000EDCF1000C7EEB00006EEB2A
:100210000101B1F5801F1BD3B1F5001F0CD34908B4
:100220005FEA30004FEA3C0C04F101044FEA44520B
:1002300012F5800F80F09A80BCF1004F08BF5FEA92
:10024000500C50F1000041EB045141EA050130BD72
:100250005FEA4C0C404141EB0101013C28BFB1F584
:10026000801FE9D291F0000F04BF01460020B1FACF
:1002700081F308BF2033A3F10B03B3F120020CDAA2
:100280000C3208DD02F1140CC2F10C0201FA0CF080
:1002900021FA02F10CE002F11402D8BFC2F1200CE5
:1002A00001FA02F120FA0CFCDCBF41EA0C0190409B
:1002B000E41AA2BF01EB0451294330BD6FEA0404E4
:1002C0001F3C1CDA0C340EDC04F11404C4F12002CF
:1002D00020FA04F001FA02F340EA030021FA04F3E1
:1002E00045EA030130BDC4F10C04C4F1200220FA38
:1002F00002F001FA04F340EA0300294630BD21FA76
:1003000004F0294630BD94F0000F83F4801306BF3B
:1003100081F480110134013D4EE77FEA645C18BF2F
:100320007FEA655C29D094EA050F08BF90EA020FC6
:1003300005D054EA000C04BF1946104630BD91EABE
:10034000030F1EBF0021002030BD5FEA545C05D1C1
:100350004000494128BF41F0004130BD14F5800400
:100360003CBF01F5801130BD01F0004545F0FE4174
:1003700041F470014FF0000030BD7FEA645C1ABFA9
:10038000194610467FEA655C1CBF0B46024650EAE0
:10039000013406BF52EA033591EA030F41F400210C
:1003A00030BD00BF90F0000F04BF0021704730B592
:1003B0004FF4806404F132044FF000054FF0000167
:1003C00050E700BF90F0000F04BF0021704730B528
:1003D0004FF4806404F1320410F0004548BF4042FD
:1003E0004FF000013EE700BF42004FEAE2014FEA52
:1003F00031014FEA02701FBF12F07F4393F07F4F2D
:1004000081F06051704732F07F4208BF704793F02F
:100410007F4F04BF41F40021704730B54FF4607442
:1004200001F0004521F000411CE700BF50EA010245
:1004300008BF704730B54FF000050AE050EA0102EE
:1004400008BF704730B511F0004502D5404261EB5E
:1004500041014FF4806404F132045FEA915C3FF49F
:10046000D8AE4FF003025FEADC0C18BF03325FEA3C
:10047000DC0C18BF033202EBDC02C2F1200300FAED
:1004800003FC20FA02F001FA03FE40EA0E0021FA12
:1004900002F11444BDE600BF70B54FF0FF0C4CF400
:1004A000E06C1CEA11541DBF1CEA135594EA0C0FB2
:1004B00095EA0C0F00F0DEF82C4481EA030621EAED
:1004C0004C5123EA4C5350EA013518BF52EA033528
:1004D00041F4801143F4801338D0A0FB02CE4FF0DA
:1004E0000005E1FB02E506F00042E0FB03E54FF00A
:1004F0000006E1FB03569CF0000F18BF4EF0010E02
:10050000A4F1FF04B6F5007F64F5407404D25FEAFD
:100510004E0E6D4146EB060642EAC62141EA5551B0
:100520004FEAC52040EA5E504FEACE2EB4F1FD0CF2
:1005300088BFBCF5E06F1ED8BEF1004F08BF5FEA70
:10054000500E50F1000041EB045170BD06F0004622
:1005500046EA010140EA020081EA0301B4EB5C04CF
:10056000C2BFD4EB0C0541EA045170BD41F48011C7
:100570004FF0000E013C00F3AB8014F1360FDEBFEC
:10058000002001F0004170BDC4F10004203C35DAC8
:100590000C341BDC04F11404C4F1200500FA05F34B
:1005A00020FA04F001FA05F240EA020001F00042EC
:1005B00021F0004110EBD37021FA04F642EB060162
:1005C0005EEA430E08BF20EAD37070BDC4F10C048C
:1005D000C4F1200500FA04F320FA05F001FA04F250
:1005E00040EA020001F0004110EBD37041F100013C
:1005F0005EEA430E08BF20EAD37070BDC4F1200547
:1006000000FA05F24EEA020E20FA04F301FA05F2AE
:1006100043EA020321FA04F001F0004121FA04F256
:1006200020EA020000EBD3705EEA430E08BF20EA26
:10063000D37070BD94F0000F0FD101F00046400060
:1006400041EB010111F4801F08BF013CF7D041EAE2
:10065000060195F0000F18BF704703F000465200E6
:1006600043EB030313F4801F08BF013DF7D043EAB7
:100670000603704794EA0C0F0CEA135518BF95EA6D
:100680000C0F0CD050EA410618BF52EA4306D1D1F4
:1006900081EA030101F000414FF0000070BD50EA13
:1006A000410606BF1046194652EA430619D094EA9D
:1006B0000C0F02D150EA013613D195EA0C0F05D187
:1006C00052EA03361CBF104619460AD181EA0301DB
:1006D00001F0004141F0FE4141F470014FF0000093
:1006E00070BD41F0FE4141F4780170BD70B54FF02E
:1006F000FF0C4CF4E06C1CEA11541DBF1CEA1355AE
:1007000094EA0C0F95EA0C0F00F0A7F8A4EB05048F
:1007100081EA030E52EA03354FEA013100F0888086
:100720004FEA03334FF0805545EA131343EA12634F
:100730004FEA022245EA111545EA10654FEA002604
:100740000EF000419D4208BF964244F1FD0404F5BD
:10075000407402D25B084FEA3202B61A65EB030519
:100760005B084FEA32024FF480104FF4002CB6EBD6
:10077000020E75EB030E22BFB61A754640EA0C0056
:100780005B084FEA3202B6EB020E75EB030E22BF96
:10079000B61A754640EA5C005B084FEA3202B6EBD7
:1007A000020E75EB030E22BFB61A754640EA9C0096
:1007B0005B084FEA3202B6EB020E75EB030E22BF66
:1007C000B61A754640EADC0055EA060E18D04FEA24
:1007D000051545EA16754FEA06164FEAC30343EAC4
:1007E00052734FEAC2025FEA1C1CC0D111F4801F91
:1007F0000BD141EA00014FF000004FF0004CB6E78A
:1008000011F4801F04BF01430020B4F1FD0C88BF28
:10081000BCF5E06F3FF6AFAEB5EB030C04BFB6EB33
:10082000020C5FEA500C50F1000041EB045170BD26
:100830000EF0004E4EEA113114EB5C04C2BFD4EB53
:100840000C0541EA045170BD41F480114FF0000ED7
:10085000013C90E645EA060E8DE60CEA135594EA53
:100860000C0F08BF95EA0C0F3FF43BAF94EA0C0F56
:100870000AD150EA01347FF434AF95EA0C0F7FF4CB
:1008800025AF104619462CE795EA0C0F06D152EA1F
:1008900003353FF4FDAE1046194622E750EA410603
:1008A00018BF52EA43067FF4C5AE50EA41047FF414
:1008B0000DAF52EA43057FF4EBAE12E74FF0FF3C79
:1008C00006E000BF4FF0010C02E000BF4FF0010C4A
:1008D0004DF804CD4FEA410C7FEA6C5C4FEA430CC3
:1008E00018BF7FEA6C5C1BD001B050EA410C0CBF12
:1008F00052EA430C91EA030F02BF90EA020F002074
:10090000704710F1000F91EA030F58BF994208BFDA
:1009100090422CBFD8176FEAE37040F00100704797
:100920004FEA410C7FEA6C5C02D150EA013C07D1EE
:100930004FEA430C7FEA6C5CD6D152EA033CD3D039
:100940005DF8040B704700BF8446104662468C4633
:100950001946634600E000BF01B5FFF7B7FF002866
:1009600048BF10F1000F01BD4DF808EDFFF7F4FF8F
:100970000CBF012000205DF808FB00BF4DF808ED1A
:10098000FFF7EAFF34BF012000205DF808FB00BF3D
:100990004DF808EDFFF7E0FF94BF012000205DF85F
:1009A00008FB00BF4DF808EDFFF7CEFF94BF012014
:1009B00000205DF808FB00BF4DF808EDFFF7C4FF0D
:1009C00034BF012000205DF808FB00BF4A0011D2AF
:1009D00012F5001211D20DD56FF47873B3EB625299
:1009E0000ED44FEAC12343F0004343EA505323FAA5
:1009F00002F070474FF00000704750EA013002D11A
:100A00004FF0FF3070474FF00000704780F000401B
:100A100002E000BF81F0004142001FBF5FEA4103D6
:100A200092EA030F7FEA226C7FEA236C6AD04FEAD6
:100A30001262D2EB1363C1BFD2184140484041401B
:100A4000B8BF5B42192B88BF704710F0004F40F4CD
:100A5000000020F07F4018BF404211F0004F41F4E9
:100A6000000121F07F4118BF494292EA030F3FD0B5
:100A7000A2F1010241FA03FC10EB0C00C3F12003C8
:100A800001FA03F100F0004302D5494260EB400057
:100A9000B0F5000F13D3B0F1807F06D340084FEAC2
:100AA000310102F10102FE2A51D2B1F1004F40EBB7
:100AB000C25008BF20F0010040EA0300704749001F
:100AC00040EB0000013A28BFB0F5000FEDD2B0FABC
:100AD00080FCACF1080CB2EB0C0200FA0CF0AABFDF
:100AE00000EBC25052421843BCBFD040184370477D
:100AF00092F0000F81F4000106BF80F40000013283
:100B0000013BB5E74FEA41037FEA226C18BF7FEA59
:100B1000236C21D092EA030F04D092F0000F08BF9B
:100B20000846704790EA010F1CBF0020704712F082
:100B30007F4F04D1400028BF40F00040704712F1C1
:100B400000723CBF00F50000704700F0004343F026
:100B5000FE4040F4000070477FEA226216BF08465C
:100B60007FEA23630146420206BF5FEA412390EA1F
:100B7000010F40F4800070474FF0000304E000BF15
:100B800010F0004348BF40425FEA000C08BF7047C6
:100B900043F0964301464FF000001CE050EA01028A
:100BA00008BF70474FF000030AE000BF50EA01029F
:100BB00008BF704711F0004302D5404261EB41018C
:100BC0005FEA010C02BF84460146002043F0B643B1
:100BD00008BFA3F18053A3F50003BCFA8CF2083AD6
:100BE000A3EBC25310DB01FA02FC634400FA02FCDF
:100BF000C2F12002BCF1004F20FA02F243EB0200E6
:100C000008BF20F00100704702F1200201FA02FC47
:100C1000C2F1200250EA4C0021FA02F243EB02003A
:100C200008BF20EADC7070474FF0FF0C1CEAD0527E
:100C30001EBF1CEAD15392EA0C0F93EA0C0F6FD03F
:100C40001A4480EA010C400218BF5FEA41211ED01D
:100C50004FF0006343EA501043EA5111A0FB013109
:100C60000CF00040B1F5000F3EBF490041EAD371DE
:100C70005B0040EA010062F17F02FD2A1DD8B3F15A
:100C8000004F40EBC25008BF20F00100704790F0C9
:100C9000000F0CF0004C08BF49024CEA502040EA1B
:100CA00051207F3AC2BFD2F1FF0340EAC2507047E1
:100CB00040F400004FF00003013A5DDC12F1190F1F
:100CC000DCBF00F000407047C2F10002410021FA91
:100CD00002F1C2F1200200FA02FC5FEA310040F1A9
:100CE000000053EA4C0308BF20EADC70704792F022
:100CF000000F00F0004C02BF400010F4000F013A5A
:100D0000F9D040EA0C0093F0000F01F0004C02BF54
:100D1000490011F4000F013BF9D041EA0C018FE7C3
:100D20000CEAD15392EA0C0F18BF93EA0C0F0AD0C9
:100D300030F0004C18BF31F0004CD8D180EA0100EF
:100D400000F00040704790F0000F17BF90F0004F88
:100D5000084691F0000F91F0004F14D092EA0C0F6A
:100D600001D142020FD193EA0C0F03D14B0218BFFD
:100D7000084608D180EA010000F0004040F0FE4043
:100D800040F40000704740F0FE4040F440007047DF
:100D90004FF0FF0C1CEAD0521EBF1CEAD15392EA5E
:100DA0000C0F93EA0C0F69D0A2EB030280EA010C4E
:100DB00049024FEA402037D04FF0805343EA1111E7
:100DC00043EA10130CF000408B4238BF5B0042F145
:100DD0007D024FF4000C8B4224BF5B1A40EA0C00EA
:100DE000B3EB510F24BFA3EB510340EA5C00B3EB1C
:100DF000910F24BFA3EB910340EA9C00B3EBD10F0A
:100E000024BFA3EBD10340EADC001B0118BF5FEA5B
:100E10001C1CE0D1FD2A3FF650AF8B4240EBC25084
:100E200008BF20F0010070470CF0004C4CEA502045
:100E30007F32C2BFD2F1FF0340EAC250704740F494
:100E400000004FF00003013A37E792F0000F00F086
:100E5000004C02BF400010F4000F013AF9D040EA04
:100E60000C0093F0000F01F0004C02BF490011F498
:100E7000000F013BF9D041EA0C0195E70CEAD15390
:100E800092EA0C0F08D142027FF47DAF93EA0C0F77
:100E90007FF470AF084676E793EA0C0F04D14B025B
:100EA0003FF44CAF08466EE730F0004C18BF31F00D
:100EB000004CCAD130F000427FF45CAF31F0004307
:100EC0007FF43CAF5FE700BF4FF0FF3C06E000BFA0
:100ED0004FF0010C02E000BF4FF0010C4DF804CDC3
:100EE0004FEA40024FEA41037FEA226C18BF7FEAD3
:100EF000236C11D001B052EA530C18BF90EA010FD5
:100F000058BFB2EB030088BFC81738BF6FEAE17063
:100F100018BF40F0010070477FEA226C02D15FEAFF
:100F2000402C05D17FEA236CE4D15FEA412CE1D06B
:100F30005DF8040B704700BF844608466146FFE732
:100F40000FB5FFF7C9FF002848BF10F1000F0FBD14
:100F50004DF808EDFFF7F4FF0CBF012000205DF80D
:100F600008FB00BF4DF808EDFFF7EAFF34BF012092
:100F700000205DF808FB00BF4DF808EDFFF7E0FF2B
:100F800094BF012000205DF808FB00BF4DF808ED7C
:100F9000FFF7D2FF94BF012000205DF808FB00BFDF
:100FA0004DF808EDFFF7C8FF34BF012000205DF8C1
:100FB00008FB00BF42000ED2B2F1FE4F0BD34FF040
:100FC0009E03B3EB126209D44FEA002343F00043BF
:100FD00023FA02F070474FF00000704712F1610FE2
:100FE00001D1420202D14FF0FF3070474FF00000B4
:100FF000704700BF0348044B834202D0034B03B148
:10100000184770475C0000205C00002000000000D2
:101010000548064B1B1AD90F01EBA301491002D05A
:10102000034B03B1184770475C0000205C000020B0
:101030000000000010B5064C237843B9FFF7DAFF33
:10104000044B13B10448AFF300800123237010BD9B
:101050005C000020000000004054000808B5054B6B
:101060001BB105490548AFF30080BDE80840FFF714
:10107000CFBF00BF00000000600000204054000807
:1010800008B500220121212003F04AFB212003F0B2
:101090007FFB002201211F2003F042FB1F2003F0F1
:1010A00077FB08BD72B6FEE700B591B0282200219B
:1010B00006A803F021FD00230193029303930493F8
:1010C0000593012206924FF4803307930A9202227D
:1010D0000D920E934FF4E0130F9306A802F088FED2
:1010E00080B90F23019302210291002303934FF44F
:1010F00080620492059301A803F0ACF820B911B006
:101100005DF804FBFFF7CEFFFFF7CCFF70B502F0F0
:1011100021FEFFF7C9FF00F0B3F800F093F900F0EB
:101120001DF900F0FDF8FFF7ABFF00F0B5FCC8209B
:1011300002F034FE00F02AFE00F086FA2EE00A21CA
:10114000002000F02BFF56E00A21032000F026FFCC
:101150004649A1FB04314909642303FB1141C9B28B
:10116000434DA5FB0131C908042000F017FFA5FB82
:101170000435ED0805EB8505A4EB4501C9B2052052
:1011800000F00CFF00F082FC0446FFF7F9FC00F0D1
:1011900087FF322C65DD002000F09AFD4FF480516E
:1011A000344803F045FA0028F8D14FF4005100F11B
:1011B000804000F5883003F048FA00F04DFB00F065
:1011C0005FFC044600F056FC06462B4A82FB0032C8
:1011D000C317C3EBA2134FF47A7202FB1303632B02
:1011E000ADDD224A82FB0312DB17C3EB6211C9B2E9
:1011F000002000F0D3FE1D49A1FB063149096423FC
:1012000003FB1161C9B21A4DA5FB0131C9080120C8
:1012100000F0C4FEA5FB0635ED0805EB8505A6EB41
:101220004501C9B2022000F0B9FE3146134800F072
:1012300057FC114A82FB0432E317C3EBA2134FF4AD
:101240007A7202FB1343632B7FF77EAF074A82FB60
:101250000312DB17C3EB6211C9B2032000F09EFE3C
:1012600076E7012000F034FD98E700BF1F85EB51C1
:10127000CDCCCCCC000C0140D34D62108C54000876
:1012800070B588B000240494059406940794214B0B
:101290009A6942F010029A619A6902F01002009273
:1012A000009A9A6942F020029A619A6902F020023B
:1012B0000192019A9A6942F008029A619A6902F0D1
:1012C00008020292029A9A6942F004029A619B69AA
:1012D00003F004030393039B0F4E01224FF40051CC
:1012E000304603F0ACF94FF4005304930125059503
:1012F00006940323079304A9304603F087F84FF4BC
:10130000805304930594069504A9044803F07EF8DD
:1013100008B070BD0010024000100140000C0140F8
:1013200008B50B480B4B03600B4B43604FF48042F6
:1013300082600023C360026143618361C361036211
:1013400001F0D0FB00B908BDFFF7ACFEFBE700BF22
:101350007800002000540040801A060008B50B48B1
:101360000B4B03600B4B43604FF4804282600023C1
:10137000C360026143618361C361036201F0B2FB38
:1013800000B908BDFFF78EFEFBE700BFCC000020D0
:1013900000580040801A060010B588B0002304935E
:1013A0000593069307930368224A934204D0224A86
:1013B00093421FD008B010BD204CA36943F008032E
:1013C000A361A36903F008030093009BC023049367
:1013D000122305930323079304A9194803F016F871
:1013E000E36943F40013E361E36903F40013019339
:1013F000019BDFE7114CA36943F00803A361A369D4
:1014000003F008030293029B4FF4406304931223FA
:1014100005930323079304A9094802F0F7FFE36942
:1014200043F48003E361E36903F480030393039BC4
:10143000C0E700BF005400400058004000100240C8
:10144000000C014008B50A480A4B03604FF4E13331
:10145000436000238360C36003610C2242618361A7
:10146000C36103F045FA00B908BDFFF71BFEFBE7B7
:10147000200100200038014010B586B000230293FF
:101480000393049305930268174B9A4201D006B068
:1014900010BD03F558439A6942F480429A619A69F3
:1014A00002F480420092009A9A6942F004029A6122
:1014B0009B6903F004030193019B4FF400730293B3
:1014C0000223039303230593084C02A9204602F04C
:1014D0009DFF4FF48063029300230393049302A9BA
:1014E000204602F093FFD2E7003801400008014097
:1014F00070B586B000238DF817308DF81630144D76
:101500000A260296012401940DF117030093234645
:101510000422AF21284601F075FC029601940DF1DA
:101520001603009323460622AF21284601F06AFCE9
:101530009DF817009DF81630C21A002A03DBC01A66
:10154000C0B206B070BDD0B22030C0B2F9E700BF63
:10155000CC00002030B58DB004460D46052900D9D9
:1015600005251923029305EB45035B009BB201930C
:1015700004AB009301230722AF211E4801F042FC77
:10158000002132E001EB41035A000CA800EB4303B9
:1015900013F8200C02F131036B4413F8203C1B02BA
:1015A00043EA004302F13200684410F8200C034380
:1015B00004EBC100C3F3110344F8313002F13303EB
:1015C0006B4413F820CC02F134036B4413F8203C35
:1015D0001B0243EA0C4335326A4412F8202C1343B1
:1015E000C3F3110343600131C9B28D42CAD80DB0B3
:1015F00030BD00BFCC0000202DE9F04186B00022B4
:101600008DF817200F4D0A270297012401940DF140
:10161000170600962346AF21284601F0F3FB9DF8FC
:10162000178002970194009623462246AF21284650
:1016300001F0E8FB9DF8170048EA000006B0BDE89D
:10164000F08100BFCC000020F0B587B000238DF8FA
:10165000173040238DF817300A230293012301939A
:101660000DF1170200920922AE213E4801F018FB4D
:101670000A230293012301930DF11702009209221C
:10168000AF21384801F0BEFB9DF8173013F0400F32
:10169000EED140238DF81730324E0A2502950124F1
:1016A00001940DF11707009723460222AE21304620
:1016B00001F0F6FA63238DF8173002950194009734
:1016C00023462A46AE21304601F0EAFA47238DF838
:1016D000173002950194009723460C22AE21304624
:1016E00001F0DEFA02950194009723460D22AE2107
:1016F000304601F0D5FA0295019400972346102256
:10170000AE21304601F0CCFA00238DF81730029557
:101710000194009723460422AE21304601F0C0FA1E
:1017200002950194009723460522AE21304601F030
:10173000B7FA02950194009723460622AE2130465F
:1017400001F0AEFAFFF758FF03238DF8173002952A
:101750000194009723460922AE21304601F0A0FAF9
:1017600007B0F0BDCC00002000B500218C460B4630
:1017700009E00B4A52F833E0F44402EBC30252682A
:1017800011440133DBB2062BF3D903686344DB0851
:10179000036043680B44DB0843605DF804FB00BF53
:1017A0008C01002082B002AB03E9030031220CE07F
:1017B000511E0A4B53F8310043F8320003EBC100CD
:1017C000406803EBC2035860CAB2002AF0D1034B51
:1017D000009A1A60019A5A6002B070478C0100208A
:1017E0002DE9F04105460E4617469846184B1968F4
:1017F0005A6810460C464FF0000C03E00CF1010C47
:101800005FFA8CFCBCF1310F15D8E646104B53F84B
:101810003C308B4200D91946A34200D21C460C4BE7
:1018200003EBCE0EDEF80430934200D91A46834211
:10183000E4D21846E2E70B1B2B80214449083160B3
:10184000131A3B8002445208C8F80020BDE8F0811A
:101850008C010020000000002DE9F04F8BB0FFF755
:1018600047FE064601466846FFF774FE002473E013
:10187000E7000AAB03EBC403283B93E80300FFF740
:1018800091FFDFF8BC91DFF8BC81DFF8BCA1DFF885
:10189000BCB14B46424651465846FFF7A1FF0DEBFF
:1018A0000700FFF761FFBBF80000FFF765F9074687
:1018B000DAF80000FFF760F901463846FFF768FAEA
:1018C0000746B8F80000FFF757F98046D9F800003E
:1018D000FFF752F901464046FFF75AFA01463846EB
:1018E000FFF756FA0746FEF77FFD804689464CA370
:1018F000D3E90023FFF756F8002842D04AA3D3E9E2
:10190000002340464946FFF739F8002839D05049AE
:101910003846FFF789F901464E48FFF77BF8FFF795
:1019200049FB4D4B18700AAB03EBC50353F8247CFD
:101930004A4B1B68DB1B1BB2494A1380322B03DD69
:10194000484B18780C284AD8444B1F60454A1378F6
:10195000013313700134E4B2B4425CD225460AABC1
:1019600003EBC40353F8242C49F63F439A423FF655
:101970007FAF00233C4A1370374A1370384A1380F4
:10198000E8E729A3D3E9002340464946FFF70AF8D0
:101990000028C8D04FF07E513846FFF7E3FA002800
:1019A000C1D032493846FFF73FF9FEF71DFD024628
:1019B0000B461FA1D1E90001FEF7B6FBFFF706F8C1
:1019C000254B1870AFE76A1E29498A5C4A55013BCE
:1019D000DBB2002BF7D1264A1070002006E0092365
:1019E000F7E7234A525D10440133DBB2092BF8D9E3
:1019F000FFF7C2F8FEF7F8FC02460B460EA1D1E94C
:101A00000001FEF773FEFEF7E1FF174B1870154B50
:101A100000221A7098E70BB0BDE8F08FAFF300809A
:101A20000AD7A3703D0AD73F1F85EB51B81EE53F8B
:101A300014AE47E17A34604000000000004CDD4005
:101A40007C0100208001002084010020880100200A
:101A50000000A0410000D6428A010020740100204D
:101A600078010020720100208B0100200000584204
:101A700068010020014B1878704700BF8B010020DF
:101A8000014B1878704700BF8A010020014BB3F961
:101A9000000070477801002008B501220249034880
:101AA00002F0D0FF08BD00BF1C0300202001002071
:101AB00000B5B3B00A460146684603F013F80028A3
:101AC00002DC33B05DF804FB6846FEF721FB6423BB
:101AD00082B26946014802F03BFFF2E72001002094
:101AE0000FB400B583B004A951F8040B0191FFF7BE
:101AF000DFFF03B05DF804EB04B0704700B587B0BA
:101B00008DF8170071B10E4B18780E490B780E4AFC
:101B100002EBC0129DF81700D05401330B7007B0D0
:101B20005DF804FB32230293012301930DF11702A8
:101B3000009200227821054801F0B2F8EFE700BFDB
:101B4000210700202007002020030020780000202B
:101B500010B582B0314B1B78042B09D0032B14D065
:101B6000022B20D0012B2DD0002B3CD002B010BD79
:101B700000218D20FFF7C2FF00211020FFF7BEFFDC
:101B80000021AE20FFF7BAFFF0E7254A00241470C9
:101B900001230193009222467821224801F0D6FACF
:101BA0001E4B1C70E2E71E4A1023137001230193A1
:101BB0000092002278211B4801F0C8FA174B03223B
:101BC0001A70D3E7184B1B78503B154A137001234A
:101BD0000193009200227821124801F0B7FA0F4BCE
:101BE00002221A70C2E7104C2278104B03EBC2138A
:101BF000802201920093012340227821094801F0BC
:101C0000A5FA23780133DBB22370072B01D9002218
:101C10002270024B01221A70A8E700BF240700209F
:101C20001D0300207800002025070020200300204D
:101C3000024B1870024B1970704700BF200700203C
:101C40002107002038B500250AE001210020FFF718
:101C500055FF0134E4B214F0800FF6D00135EDB237
:101C6000072D05D829460020FFF7E2FF0024F2E700
:101C700038BD00002DE9F04106468846174615E0BC
:101C800008F101085FFA88F8002616E005EB450325
:101C90000E4A02EB43030121185DFFF72FFF0134C9
:101CA000E4B2052CF2D90636F6B201373D7855B1CB
:101CB000203DEDB216F0800FE2D141463046FFF7ED
:101CC000B7FF0024EDE7BDE8F08100BFD85400085D
:101CD00038B5044602210120FFF7AAFF84B9254642
:101CE00033E00121284B185DFFF708FF0134E4B20F
:101CF000142CF6D903210120FFF79AFF00240AE0F3
:101D00000024F5E704F1150301211F4AD05CFFF719
:101D1000F5FE0134E4B2142CF4D904210120FFF7BC
:101D200087FF002408E004F12A030121164AD05C51
:101D3000FFF7E4FE0134E4B2142CF4D938BD0121DC
:101D40000020FFF7DBFE0135EDB2142DF7D903219A
:101D50000120FFF76DFF254605E001210020FFF778
:101D6000CDFE0135EDB2142DF7D904210120FFF786
:101D70005FFF05E001210020FFF7C0FE0134E4B25F
:101D8000142CF7D9DAE700BF0057000830B591B03E
:101D90000021AE20FFF7B2FE00210846FFF7AEFE9D
:101DA00000211020FFF7AAFE00214020FFF7A6FE29
:101DB0000021B020FFF7A2FE00218120FFF79EFE48
:101DC0000021F020FFF79AFE0021A120FFF796FEE8
:101DD0000021A620FFF792FE0021A820FFF78EFE2B
:101DE00000213F20FFF78AFE0021C820FFF786FE72
:101DF0000021D320FFF782FE00210846FFF77EFE78
:101E00000021D520FFF77AFE00218020FFF776FE23
:101E10000021D920FFF772FE0021F120FFF76EFEAE
:101E20000021DA20FFF76AFE00211220FFF766FE8C
:101E30000021DB20FFF762FE00213020FFF75EFE6D
:101E400000218D20FFF75AFE00211420FFF756FED7
:101E50000021AF20FFF752FEFFF7F4FE0120FFF74D
:101E600037FF454B0CAC0FCB07C4237004213A203D
:101E7000FFF7DEFE002409E004F140036B4401217A
:101E800013F8100CFFF73AFE0134E4B20C2CF3D92E
:101E90003A4B93E803000A90ADF82C100421792006
:101EA000FFF7C6FE002409E004F140036B44012162
:101EB00013F8180CFFF722FE0134E4B2052CF3D915
:101EC00001AC2F4D0FCD0FC40FCD0FC42B68237065
:101ED00002214920FFF7ACFE002409E004F1400391
:101EE0006B44012113F83C0CFFF708FE0134E4B207
:101EF0000A2CF3D903214920FFF79AFE002409E0B8
:101F000004F14B036B44012113F83C0CFFF7F6FD81
:101F10000134E4B20A2CF3D904214920FFF788FEEA
:101F2000002409E004F156036B44012113F83C0C32
:101F3000FFF7E4FD0134E4B20A2CF3D9114A002181
:101F40000846FFF797FE104A01210020FFF792FE96
:101F50000E4A01212120FFF78DFE0D4A01213C2070
:101F6000FFF788FE0B4A01214520FFF783FE0A4850
:101F7000FFF7EEFD11B030BD58540008CC540008F6
:101F80006854000898540008AC540008B454000881
:101F9000BC540008C05400087800002070B53A4BCB
:101FA0005C5C3A4B1E5C02213046FFF741FE002587
:101FB00007E014F0200016D10121FFF79FFD013545
:101FC000EDB2092D11D8012DF3D9AB1EDBB2052BD3
:101FD00004D914F00200EFD0F820EDE714F001006E
:101FE000EAD00620E8E7F820E6E703213046FFF7CD
:101FF0001FFE00250DE014F0200000D0032014F097
:10200000100F01D040F0F0000121FFF777FD0135FE
:10201000EDB2092D14D8012DEDD9AB1EDBB2052B85
:1020200009D914F0020000D0032014F0040FEBD003
:1020300040F0F000E8E714F04000E5D00C20E3E7C2
:1020400004213046FFF7F4FD002507E014F01000EE
:1020500016D10121FFF752FD0135EDB2092D11D83E
:10206000012DF3D9AB1EDBB2052B04D914F004000B
:10207000EFD00720EDE714F00800EAD01820E8E7D9
:102080000720E6E770BD00BF405700084C57000826
:10209000884238BF08467047884228BF08467047C4
:1020A000F0B583B0404B1B68ADF804301B0C8DF8C5
:1020B0000630FEF799F93AA3D3E90023FEF7ECF9CD
:1020C000FEF784FCC7B20A37FFB2172F00D91727D3
:1020D000364B1D7829463846FFF7DAFF0446294675
:1020E0003846FFF7D9FF844201D0002304E0441CA6
:1020F000E4B2FAE70133DBB2022B1BD81946B0EB8E
:10210000C30209D403F108056D4415F8046C46FABE
:1021100002F2324005F8042C4A1CD4EBC202E9D486
:102120000831694411F8045C05FA02F22A4001F80A
:10213000042CDFE7002609E001210020FFF7DEFC88
:102140000134E4B2AC42F7D30136F6B2022E17D80E
:10215000C6F10701164CC9B22078FFF769FD0121CD
:1021600006F108036B4413F8040CFFF7C7FC25784D
:10217000C5F17F05EDB2032D00D903250024E1E769
:102180000A4B1F700A4A13780133DBB2137013F045
:10219000800F01D103B0F0BD134600221A70F9E799
:1021A000B81E85EB51B8BE3FD45400082307002069
:1021B00022070020FEE7FEE7FEE7FEE7FEE77047A6
:1021C0007047704708B501F0D7FD08BD08B5024853
:1021D00001F0CAFC08BD00BF7800002008B5024825
:1021E00001F0C2FC08BD00BFCC00002082B00E4B45
:1021F0009A6942F001029A619A6902F00102009222
:10220000009ADA6942F08052DA61DB6903F08053A8
:102210000193019B054A536823F0E06343F0007388
:10222000536002B0704700BF001002400000014040
:1022300003685A6912F0800F01D000221A617047BA
:1022400090F83E30DBB2402B10D00369B3F5804FDD
:102250001BD0036D002B39D1436CC3F3C813026844
:1022600003F0060343F0F00313617047036D2BB9CD
:10227000436C026803F0FE0313617047436C02680D
:1022800043F00103DBB21361704790F83D30DBB2DD
:10229000212B0FD0436C026843F00103DBB21361C2
:1022A000436B6BB19B6A5BB10268536843F4006394
:1022B00053607047436C026803F0FE031361EFE75D
:1022C000836B33B19B6A002BEED102E0036D012BCF
:1022D00000D07047436CC3F3C813026803F00603D1
:1022E00043F0F1031361F4E7436C0268DBB213615E
:1022F000436B3BB19B6A2BB10268536843F40063A4
:1023000053607047836B002BFBD09B6A002BF3D18B
:10231000F7E710B48DB090F83E30DAB2C16A046BC2
:1023200090F83D30DBB2222B0AD000230B930368D8
:102330005A690B929B690B930B9B0DB010BC7047B5
:10234000036D0BB9402A17D0036D1BB90369B3F5B0
:10235000404F19D0438D9BB2002B25D103930368C6
:102360005A6903929A690392039A1A6842F40072B6
:102370001A6000230365E0E7019303685A6901923C
:102380009B690193019BD8E70023029303685A6974
:1023900002929A690292029A1A6842F480721A6052
:1023A000036D01330365C8E7438D9BB2012B25D034
:1023B000438D9BB2022B7BD00268136843F4806389
:1023C000136003685A6812F4006F0ED011F5803F55
:1023D00007D0012905D0082903D0102901D02029D0
:1023E00003D15A6842F480525A6000230A9303686A
:1023F0005A690A929B690A930A9BBAE711F5803FD2
:1024000011D0082934D0202932D0122C2ED0042902
:1024100040D002293ED010293CD00268136823F432
:10242000806313603BE00268136823F480631360E9
:1024300003685A6812F4006F0CD01A6822F48062A4
:102440001A600023049303685A6904929B690493F9
:10245000049B8EE7002205925A6905929A690592BB
:10246000059A1A6842F400721A6082E70129CED0F8
:102470000268136823F480631360002307930368E2
:102480005A6907929A690792079A1A6842F4007289
:102490001A606EE70268136843F4806313600023D8
:1024A000069303685A6906929B690693069B60E748
:1024B000042915D0022913D0102911D002681368FD
:1024C00043F4006313600023089303685A69089279
:1024D0009A690892089A1A6822F480621A600CE0DD
:1024E0000268136843F48063136000230993036850
:1024F0005A6909929B690993099B03685A6812F407
:10250000006F3FF436AF11F5803F08D0012906D0A7
:10251000082904D0102902D020297FF42AAF5A6854
:1025200042F480525A6024E7438D9BB25BB1426A09
:10253000036812781A61436A01334362438D9BB288
:10254000013B9BB243857047438D9BB25BB10368EF
:102550001A69436A1A70436A01334362438D9BB21E
:10256000013B9BB24385704782B0002301930E4B21
:102570001B68DB080D4AA2FB03231B0A03EB830342
:102580000193019B013B0193019B33B103681B68DD
:1025900013F4007FF5D1002004E0036C43F0200326
:1025A0000364012002B070470800002089B5F814C8
:1025B00003685A6912F4806F01D1002070476FF4EC
:1025C00080625A6100230363202280F83D2080F856
:1025D0003E30026C42F00402026480F83C3001207C
:1025E0007047C36AB3F52A0F04D0C36AB3F12A4F08
:1025F00003D070470123C36270470823C362F8E722
:102600002DE9F04106460C46174698463BE001F09E
:10261000BFFB069BC01A404502D8B8F1000F32D16B
:10262000012D18D033689B6924EA03039BB2B3FAE7
:1026300083F35B099F4226D100233363202286F86F
:102640003D2086F83E30326C42F02002326486F83B
:102650003C30012027E033685B6924EA03039BB226
:10266000B3FA83F35B09E5E733685B6924EA030C9B
:102670001FFA8CFCBCFA8CFC4FEA5C1C674511D13C
:10268000B8F1FF3FC3D1C4F30745012DECD0336847
:102690009B6924EA030C1FFA8CFCBCFA8CFC4FEA01
:1026A0005C1CEBE70020BDE8F0812DE9F84305460E
:1026B0000E469046994653E01A6842F400721A603A
:1026C0002B686FF480625A6100232B63202285F807
:1026D0003D2085F83E302A6C42F004022A6485F8D9
:1026E0003C3001204AE001F053FBA0EB09004045DB
:1026F00002D8B8F1000F33D1012F17D02B689B6996
:1027000026EA03039BB2003B18BF012343B3002317
:102710002B63202285F83D2085F83E302A6C42F05C
:1027200020022A6485F83C30012027E02B685B6991
:1027300026EA03039BB2003B18BF0123E6E72B68A0
:102740009C6926EA0404A4B2003C18BF0124A4B189
:102750002B685A6912F4806FAED1B8F1FF3FC2D135
:10276000C6F30747012FEAD12B685C6926EA040407
:10277000A4B2003C18BF0124E9E70020BDE8F883BB
:1027800070B504460D46164623685B6913F0800F4A
:1027900021D12046FFF70CFFF8B9B5F1FF3FF3D088
:1027A00001F0F6FA801BA84201D8002DECD1236875
:1027B0005B6913F0800FE7D100232363202284F8A4
:1027C0003D2084F83E30226C42F02002226484F8DE
:1027D0003C30012000E0002070BD0120FCE700003B
:1027E0002DE9F04385B004460D4691461F46DDF8BD
:1027F00030800D9E0368196841F48071196000965D
:10280000434600224FF00111FFF7FAFE60B923683A
:1028100005F0FE051D613346424626492046FFF776
:1028200044FF68B1012008E023681B6813F4807F2F
:1028300002D04FF400732364032005B0BDE8F08399
:102840000023039323685A6903929B690393039BB4
:10285000324641462046FFF793FF30B9012F0FD192
:1028600023685FFA89F61E61E7E7236C042B01D029
:102870000120E2E72268136843F400731360F7E76E
:1028800023684FEA19221A61324641462046FFF773
:1028900077FF20B923685FFA89F61E61CDE7236CC4
:1028A000042B01D00120C8E72268136843F40073A9
:1028B0001360F7E7020001002DE9F04784B00446F9
:1028C0000D46164699460C9FDDF834800268136861
:1028D00043F4806313600368196841F480711960E0
:1028E000CDF800803B4600224FF00111FFF788FE33
:1028F00070B95FFA85FA236805F0FE051D6143464D
:102900003A4641492046FFF7D0FE68B1012008E071
:1029100023681B6813F4807F02D04FF40073236494
:10292000032004B0BDE8F0870023039323685A69AD
:1029300003929B690393039B424639462046FFF767
:102940001FFF80B9B9F1010F18D12368F6B21E61DB
:10295000424639462046FFF713FF68B3236C042B29
:1029600024D00120DDE7236C042B01D00120D8E71F
:102970002268136843F400731360F7E72368320A90
:102980001A61424639462046FFF7FAFE18B9236815
:10299000F6B21E61DCE7236C042B01D00120C0E7F6
:1029A0002268136843F400731360F7E72268136822
:1029B00043F400731360D4E72268136843F4807310
:1029C0001360CDF800803B4600224FF001112046F5
:1029D000FFF716FE68B922684AF001031361434607
:1029E0003A4609492046FFF760FE002899D00120A9
:1029F00097E723681B6813F4807F02D04FF40073BD
:102A0000236403208DE700BF0200010070B5044677
:102A10000D46164623685B6913F0040F21D120464A
:102A2000FFF7C6FDF8B9B5F1FF3FF3D001F0B0F9FB
:102A3000801BA84201D8002DECD123685B6913F0FC
:102A4000040FE7D100232363202284F83D2084F87B
:102A50003E30226C42F02002226484F83C30012097
:102A600000E0002070BD0120FCE770B504460D4673
:102A7000164614E06FF010025A61002323632022EF
:102A800084F83D2084F83E30226C226484F83C3087
:102A9000012025E023685B6913F0400F10D0236804
:102AA000586910F0400F1AD1586910F0100FE1D199
:102AB00001F06EF9801BA842ECD8002DEFD1E9E7B8
:102AC00000232363202284F83D2084F83E30226CCA
:102AD00042F02002226484F83C30012000E0002013
:102AE00070BD0000002800F0CC8070B5044690F85E
:102AF0003D30002B77D0242384F83D3022681368C2
:102B000023F0010313602268136843F40043136049
:102B10002268136823F40043136001F057FC6268D5
:102B20005A4B9A4264D85A4B98428CBF00230123D7
:102B3000002B40F0A8805749A1FB00318B0C256881
:102B40006A6822F03F0242EA91426A6021680A6A9A
:102B500022F03F0266684D4DAE424FD80133134319
:102B60000B622168CA6922F44F4222F0FF026668B4
:102B7000464B9E424CD8431E7600B3FBF6F301331E
:102B800040F6FC70034278D0C3F30B031343CB61D0
:102B900021680B6823F0C003E269206A02431343F3
:102BA0000B6021688B6823F4034323F0FF03226941
:102BB000E068024313438B602168CB6823F0FF0376
:102BC0006269A06902431343CB602268136843F033
:102BD0000103136000202064202384F83D3020632B
:102BE00084F83E0070BD80F83C30FEF7D5FB82E7EC
:102BF000294B98428CBF0023012399E74FF4967527
:102C000005FB03F3254DA5FB03539B090133A6E701
:102C1000A368BBB9451E06EB460CB5FBFCF50135B8
:102C2000C5F30B05B5FA85F56D0945BBC3B9013888
:102C300006EB4603B0FBF3F30133C3F30B0343F49A
:102C40000043A3E7451E06EB860C0CEB8C0CB5FB92
:102C5000FCF50135C5F30B05B5FA85F56D09E4E71B
:102C6000013806EB860303EB8303B0FBF3F3013378
:102C7000C3F30B0343F4404388E7042386E70123AF
:102C800084E7012070470120ACE700BFA086010067
:102C90007F841E0083DE1B43FF083D00D34D62107E
:102CA0002DE9F04383B004460F46904699460C9EAA
:102CB00001F06EF8054694F83D00C0B2202803D01C
:102CC000022003B0BDE8F0830095192301224B498F
:102CD0002046FFF795FC002840F0898094F83C30AE
:102CE000012B00F08680012384F83C3023681A68A9
:102CF00012F0010F03D11A6842F001021A60226833
:102D0000136823F400631360212384F83D304023CB
:102D100084F83E30002323640A9B6362BDF82C30A4
:102D20006385638D2385364BE362019500964B46A0
:102D3000424639462046FFF753FD00285BD1238DDC
:102D4000002B35D02A4631462046FFF719FD20BB1F
:102D5000626A236812781A61626A531C6362218D69
:102D6000013989B22185638D9BB2013B9BB263859A
:102D70002368586910F0040FE1D00029DFD05278A1
:102D80001A61636A01336362238D013B2385638D7E
:102D90009BB2013B9BB26385D1E7236C042B01D02E
:102DA00001208EE72268136843F400731360F7E78D
:102DB0002A4631462046FFF729FE50B1236C042BEA
:102DC00001D001207DE72268136843F4007313608B
:102DD000F7E72268136843F400731360202384F834
:102DE0003D30002384F83E3084F83C3069E702200F
:102DF00067E7022065E7012063E700BF02001000DB
:102E00000000FFFF2DE9F04389B004460F469046CD
:102E10009946129E0023079300F0BAFF054694F8E6
:102E20003D00C0B2202804D00227384609B0BDE8D2
:102E3000F08300951923012281492046FFF7E0FB2A
:102E4000002840F0728194F83C30012B00F06F8133
:102E5000012384F83C3023681A6812F0010F03D173
:102E60001A6842F001021A602268136823F40063B2
:102E70001360222384F83D30402384F83E30002341
:102E80002364109B6362BDF844306385638D2385A2
:102E90006C4BE362019500964B464246394620460C
:102EA000FFF70AFD0746002840F04381238D5BB9F8
:102EB000039323685A6903929A690392039A1A68E2
:102EC00042F400721A60EDE0012B0FD0022B21D0EA
:102ED0002268136843F48063136000230693236819
:102EE0005A6906929B690693069BDBE02268136889
:102EF00023F48063136072B60023049323685A6935
:102F000004929A690492049A1A6842F400721A6050
:102F100062B6C7E02268136843F40063136072B6B8
:102F20000023059323685A6905929A690592059AC8
:102F30001A6822F480621A6062B6B3E02A4631460B
:102F40002046FFF792FD002840F0F58023681A69BB
:102F5000636A1A70636A01336362238D013B2385C0
:102F6000638D9BB2013B9BB263859BE0009533462A
:102F7000002235492046FFF743FB002840F0DF8060
:102F80002268136823F48063136072B623681A6999
:102F9000636A1A70636A01336362238D013B238580
:102FA000638D9BB2013B9BB26385284B1B68DB089A
:102FB000274AA2FB03231B0A03EB8303C3EBC303D0
:102FC0000793079B013B0793079B002B28D023689F
:102FD0005A6912F0040FF4D01A6842F400721A60B1
:102FE00023681A69636A1A70636A01336362238D06
:102FF000013B2385638D9BB2013B9BB2638562B627
:1030000023681A69636A1A70636A01336362238DE5
:10301000013B2385638D9BB2013B9BB2638541E0FD
:103020002363202284F83D2084F83E30226C42F055
:103030002002226462B684F83C300127F5E600BF26
:10304000020010000000FFFF040001000800002043
:1030500089B5F8142A4631462046FFF706FD0028B8
:103060006FD123681A69636A1A70626A531C6362BB
:10307000238D013B2385638D9BB2013B9BB263850E
:103080002368596911F0040F0CD01B695370636AEF
:1030900001336362238D013B2385638D9BB2013B2A
:1030A0009BB26385238D002B36D0032BD2D8012B06
:1030B0003FF444AF022B7FF459AF00953346002212
:1030C00021492046FFF79CFA002836D172B62268C3
:1030D000136843F40073136023681A69636A1A70F3
:1030E000636A01336362238D013B2385638D9BB249
:1030F000013B9BB2638562B623681A69636A1A70E2
:10310000636A01336362238D013B2385638D9BB228
:10311000013B9BB26385C5E7202384F83D30002343
:1031200084F83E3084F83C307FE602277DE60227B3
:103130007BE6012779E6012777E6012775E6012777
:1031400073E6012771E600BF0400010030B482B0CD
:103150000024019490F83D40E4B2202C59D1304C29
:103160002468E4082F4DA5FB0454240A04EB8404CE
:1031700004EB84040194019C013C0194019C002C0B
:103180003BD00468A56915F0020FF4D190F83C50CB
:10319000012D42D0012580F83C50256815F0010F23
:1031A00003D1256845F00105256005682C6824F4E5
:1031B00000642C60212480F83D40402480F83E408B
:1031C00000240464049D4562BDF814504585458D76
:1031D0000585154DC56241648264C3640465026857
:1031E000136843F48073136080F83C4002685368AE
:1031F00043F4E063536020460CE000230363202285
:1032000080F83D2080F83E30036C134303640220B5
:1032100000E0022002B030BC70470220FAE700BF95
:103220000800002089B5F8140000FFFF70477047C0
:10323000704708B590F83D30DAB2438D9BB283B148
:10324000416A036809781961436A01334362438D17
:103250009BB2013B9BB24385438D9BB20BB9292A9C
:1032600000D008BD0268536823F4806353602123B3
:103270000363282380F83D30FFF7DAFFF1E770475A
:1032800008B590F83D30DAB2438D9BB283B1036844
:103290001969436A1970436A01334362438D9BB2D3
:1032A000013B9BB24385438D9BB20BB92A2A00D0C8
:1032B00008BD0268536823F48063536022230363CC
:1032C000282380F83D30FFF7DAFFF1E7704700B5BB
:1032D00083B090F83D3003F02803282B0CD0002356
:1032E000019302685169019192690192019A80F8F3
:1032F0003C3003B05DF804FB0268536823F480633C
:10330000536011F0040F0BD0002311F0800F09D18E
:103310008289002180F83C101946FFF7D7FFE8E7C3
:103320000123F2E7028BF4E7704708B5C26A90F810
:103330003D30DBB2212B00D008BD438D9BB263B181
:10334000426A036812781A61436A01334362438D0B
:103350009BB2013B9BB24385EEE7082A04D0202AAA
:1033600002D012F5803F19D10268536823F4E0635C
:1033700053600268136843F400731360002303630F
:10338000202380F83D3090F83E30DBB2402B15D042
:10339000002380F83E30FFF749FFCDE7026853680D
:1033A00023F4E063536011230363002380F83E306D
:1033B000202380F83D30FFF739FFBDE7002380F878
:1033C0003E30FEF7C5FBB7E708B590F83D30026D1B
:1033D0009AB9C36C012B08D0836CC3F3072302682E
:1033E0001361036D0133036508BD836C0268DBB2B2
:1033F0001361036D02330365F6E7DBB2026D012A48
:1034000023D0026D022A3ED1222B26D0428D92B2C9
:103410000AB1212B2AD0428D92B2002AE4D1212B6D
:10342000E2D10268536823F4E063536002681368D2
:1034300043F40073136000230363202280F83D20CF
:1034400080F83E30FEF784FBCEE7836C0268DBB287
:103450001361036D01330365C6E70268136843F423
:1034600080731360036D01330365BDE7426A03682F
:1034700012781A61436A01334362438D9BB2013B68
:103480009BB24385B0E7FEF7D3FEADE710B590F8E9
:103490003D30DBB290F83E20D2B2C46A018D09B94A
:1034A000212B04D0212B3BD0402A37D010BD082C33
:1034B00004D0202C02D014F5803F19D10268536843
:1034C00023F4E06353600268136843F400731360ED
:1034D00000230363202380F83D3090F83E30DBB2B8
:1034E000402B15D0002380F83E30FFF79FFEDDE72C
:1034F0000268536823F4E0635360112303630023DD
:1035000080F83E30202380F83D30FFF78FFECDE776
:10351000002380F83E30FEF71BFBC7E7222BC5D106
:10352000438D9BB22BB90268536823F480635360C8
:10353000BCE790F83E30DBB2402B0CD0426A036807
:1035400012781A61436A01334362438D9BB2013B97
:103550009BB24385AAE7FFF737FFA7E7704708B597
:10356000C26A438D9BB2042B14D0438D9BB2032BB4
:1035700022D0438D9BB2022B39D003681A69436A6B
:103580001A70436A01334362438D9BB2013B9BB285
:10359000438510E00268536823F480635360036836
:1035A0001A69436A1A70436A01334362438D9BB2BE
:1035B000013B9BB2438508BD01684B6823F48063DF
:1035C0004B60042A06D0022A04D00268136823F450
:1035D0008063136003681A69436A1A70436A01338F
:1035E0004362438D9BB2013B9BB24385E3E7012AD3
:1035F0000BD0102A09D0042A38D0022A36D002680B
:10360000136843F40073136004E00268136823F442
:103610008063136003681A69436A1A70426A531C14
:103620004362438D9BB2013B9BB2438503681B6998
:103630005370436A01334362438D9BB2013B9BB29B
:1036400043850268536823F440735360202380F855
:103650003D3090F83E30DBB2402B0DD0002380F897
:103660003E3012230363FFF7E2FDA4E7026813680C
:1036700043F480631360CDE7002380F83E3003639A
:10368000FFF76CFF97E7704790F83D30DBB2222BD5
:1036900000D0704710B50446438D9BB2032B15D95B
:1036A00003681A69436A1A70436A01334362438D9F
:1036B0009BB2013B9BB24385438D9BB2032B0FD141
:1036C0000268536823F48063536009E0C26A022AE7
:1036D00001D0012B05D92268536823F4806353601D
:1036E00010BDFEF741FF00282ED12268136823F495
:1036F000806313602268536823F4E0635360236897
:103700001A69636A1A70636A01336362638D9BB2DC
:10371000013B9BB26385202384F83D3094F83E3012
:10372000DBB2402B08D0002384F83E301223236301
:103730002046FFF77CFDD3E7002384F83E30236367
:103740002046FFF70BFFCBE72268536823F4E063C2
:10375000536023681A69636A1A70636A013363628B
:10376000638D9BB2013B9BB26385202384F83D307F
:10377000002384F83E302046FFF785FFB0E770470E
:1037800000B583B000230193406A90F83D20D2B287
:10379000324B1B68DB083249A1FB03131B0A03EB06
:1037A0008303C3EBC3030193019B43B1019B013B23
:1037B000019303681B6813F4007FF5D103E0036CE9
:1037C00043F020030364436B0BB100219962836BC8
:1037D0000BB10021996201680B6823F480630B60D0
:1037E00000234385436B0BB100215963836B0BB1FD
:1037F0000021596301680B6823F001030B6090F806
:103800003D30DBB2602B0ED002F02802282A14D003
:10381000202380F83D30002380F83E30FFF733FF4F
:1038200003B05DF804FB202380F83D30002380F8CE
:103830003E300364FFF7A3FFF2E70268136843F02A
:10384000010313600268136843F48063136000236C
:103850000363282380F83D30E0E700BF0800002024
:1038600089B5F81410B5044690F83D30DBB290F8F5
:103870003E20D2B2102A36D0402A34D003F028029B
:10388000282A38D02268526812F4006F07D1602BC2
:1038900005D0202384F83D30002384F83E300023F7
:1038A000236323685A6812F4006F48D05A6822F4E0
:1038B00000625A60626B92F82130DBB2012B20D09B
:1038C000444B5363606B00F0C9FE002849D0226866
:1038D000136823F001031360202384F83D30606BEC
:1038E000436B98473DE0222BC8D121680A6822F437
:1038F00000620A60C2E700232363282384F83D3076
:10390000CFE7A36B334A5A63A06B00F0A7FE40B326
:1039100023685A6912F0400F05D01A69636A1A7059
:10392000636A013363622268136823F00103136042
:10393000202384F83D30A06B436B984711E094F846
:103940003D20D2B2602A1FD05A6912F0400F05D034
:103950001A69636A1A70636A013363622046FFF76B
:1039600092FE236C13F00F0F04D02268536823F4E7
:10397000E063536094F83D30DBB2226C12F0040F28
:1039800001D0282B18D010BD202284F83D20002221
:1039900022645A6912F0400F05D01A69636A1A70DE
:1039A000636A013363622268136823F001031360C2
:1039B0002046FFF7E4FED4E7074BE36200232363CE
:1039C000202284F83D2084F83E302046FFF7ACFCEE
:1039D000D9E700BF813700080000FFFF30B583B092
:1039E000044690F83D50EDB20268536823F4E0635A
:1039F00053600023019303685A6901921A6842F0E8
:103A000001021A60019B0268136823F4806313604B
:103A100003685A6812F4006F38D0222D21D02A2D65
:103A20001FD0426B1268526892B24285428D92B2A8
:103A30001AB1026C42F0040202645A6822F4006275
:103A40005A60606B00F056FE01281FD0636B444A39
:103A50005A63606B00F002FEC0B1606B436B984725
:103A600014E0A26B1268526892B26285628D92B2C3
:103A70001AB1226C42F0040222645A6822F40062F5
:103A80005A60A06B00F036FE012842D1638D9BB2D4
:103A900033B323685A6912F0040F0AD01A69636AB3
:103AA0001A70636A01336362638D9BB2013B9BB200
:103AB000638523685A6912F0400F0AD01A69636A55
:103AC0001A70636A01336362638D9BB2013B9BB2E0
:103AD0006385638D9BB21BB1236C43F004032364A5
:103AE000236C13BB2A2D25D094F83D30DBB2282B54
:103AF00029D0236B222B01D0222D19D1002323633F
:103B0000202284F83D2084F83E302046FFF7B7FBA2
:103B10000EE0A36B124A5A63A06B00F09FFD0028D1
:103B2000B4D0A06B436B9847B0E72046FFF79AFEEE
:103B300003B030BD00232363282384F83D302046A2
:103B4000FFF79DFBD0E7074BE362002323632022AE
:103B500084F83D2084F83E302046FFF7E5FBE7E798
:103B6000813700080000FFFFF8B504460268556879
:103B7000C66A90F83E30DBB290F83D10C8B2102B08
:103B800013D0402B11D0236C002B7AD05369002125
:103B900013F0020F78D015F4007F75D0236C03B1B9
:103BA00091692046FFF793FBF8BDD2F818C0516920
:103BB00011F0010705D1B6F52A0FF5D0B6F12A4F5D
:103BC000F2D017B115F4007F29D111F0080F02D0FF
:103BD00015F4007F2AD111F0020F02D015F4007FF6
:103BE00028D11CF0040F31D0526812F4006FDBD1E1
:103BF00011F0800F05D015F4806F02D011F0040F82
:103C00001CD011F0040FCFD015F4007FCCD02128A8
:103C100018D0402BC8D12046FFF7D6FBC4E720467A
:103C2000FEF7DFFC2046FEF70BFBBDE72046FEF764
:103C30005BFBB9E72046FEF76CFBB5E72046FFF7D4
:103C400025FCB1E72046FFF770FBADE7536813F49E
:103C5000006FA9D111F0400F05D015F4806F02D08C
:103C600011F0040F09D011F0040F9DD015F4007F5E
:103C70009AD02046FFF773FC96E72046FFF704FD35
:103C800092E79169536983E713F0100F02D015F49E
:103C9000007F18D121281AD0292818D013F0400FFE
:103CA00005D015F4806F02D013F0040F28D013F064
:103CB000040F3FF479AF15F4007F3FF475AF204651
:103CC000FEF742FC70E72046FFF788FE6CE713F032
:103CD000800F05D015F4806F02D013F0040F0BD0C5
:103CE00013F0040F3FF460AF15F4007F3FF45CAFB6
:103CF0002046FEF719FC57E72046FFF79AFA53E7EC
:103D00002046FFF7BDFA4FE710B504460E4B187872
:103D10004FF47A73B3FBF0F30C4A1068B0FBF3F086
:103D200000F044FD68B90F2C01D901200AE00022FF
:103D300021464FF0FF3000F0F3FC054B1C600020E3
:103D400000E0012010BD00BF00000020080000209E
:103D50000400002008B5074A136843F010031360FD
:103D6000032000F0CBFC0020FFF7CEFFFEF73EFA69
:103D7000002008BD00200240034A1168034B1B7855
:103D80000B441360704700BF28070020000000208C
:103D9000014B1868704700BF2807002038B504465B
:103DA000FFF7F6FF0546B4F1FF3F02D0044B1B7846
:103DB0001C44FFF7EDFF401BA042FAD338BD00BF03
:103DC0000000002082B0084B1B68084AA2FB0323B6
:103DD0005B0A00FB03F3019300BF019B5A1E019293
:103DE000002BF9D102B0704708000020D34D6210BB
:103DF000002800F0F18170B582B00446036813F02A
:103E0000010F2CD0994B5B6803F00C03042B1DD0E1
:103E1000964B5B6803F00C03082B12D06368B3F574
:103E2000803F41D0002B55D103F1804303F504338B
:103E30001A6822F480321A601A6822F480221A600A
:103E400037E08A4B5B6813F4803FE7D0874B1B68F1
:103E500013F4003F03D06368002B00F0BF81236898
:103E600013F0020F75D0814B5B6813F00C0F5FD01D
:103E70007E4B5B6803F00C03082B54D02369002BA6
:103E800000F08A807A4B01221A60FFF781FF054615
:103E9000764B1B6813F0020F75D1FFF779FF401BBB
:103EA0000228F5D903209EE1704A136843F4803359
:103EB0001360636843B3FFF76BFF05466B4B1B68EA
:103EC00013F4003FCBD1FFF763FF401B6428F5D903
:103ED000032088E1B3F5A02F09D0644B1A6822F4BF
:103EE00080321A601A6822F480221A60E1E703F136
:103EF0008043A3F53C331A6842F480221A601A68A2
:103F000042F480321A60D4E7FFF742FF0546574B70
:103F10001B6813F4003FA2D0FFF73AFF401B642850
:103F2000F5D903205FE1514B5B6813F4803FA5D1C5
:103F30004E4B1B6813F0020F03D02369012B40F096
:103F40004F814A4A136823F0F803616943EAC103C9
:103F50001360236813F0080F33D0A369002B5CD0E3
:103F6000434B0122C3F88024FFF712FF05463F4B65
:103F70005B6A13F0020F21D1FFF70AFF401B0228F2
:103F8000F5D903202FE1394A136823F0F80361695A
:103F900043EAC1031360DCE7354B00221A60FFF7E8
:103FA000F7FE0546314B1B6813F0020FD1D0FFF727
:103FB000EFFE401B0228F5D9032014E10120FFF792
:103FC00001FF236813F0040F00F09680274BDB6994
:103FD00013F0805F34D1254BDA6942F08052DA6108
:103FE000DB6903F080530193019B0125214B1B6882
:103FF00013F4807F26D0E368012B3DD0002B53D1F2
:1040000003F1804303F504331A6A22F001021A62B5
:104010001A6A22F004021A6233E0154B0022C3F838
:104020008024FFF7B5FE0546104B5B6A13F0020FC4
:10403000C7D0FFF7ADFE401B0228F5D90320D2E020
:104040000025D3E70B4A136843F480731360FFF72E
:104050009FFE0646074B1B6813F4807FCBD1FFF70A
:1040600097FE801B6428F5D90320BCE000100240B5
:1040700000004242007000405F4A136A43F00103AF
:104080001362E36833B3FFF783FE06465A4B1B6A9D
:1040900013F0020F2FD1FFF77BFE801B41F2883314
:1040A0009842F3D903209EE0052B09D0524B1A6A9F
:1040B00022F001021A621A6A22F004021A62E0E790
:1040C0004D4B1A6A42F004021A621A6A42F0010267
:1040D0001A62D6E7FFF75CFE0646474B1B6A13F0F1
:1040E000020F08D0FFF754FE801B41F2883398423C
:1040F000F3D9032077E0E5B9E369002B72D03E4A9B
:10410000526802F00C02082A56D0022B17D03B4B03
:1041100000221A66FFF73CFE0446374B1B6813F07B
:10412000007F47D0FFF734FE001B0228F5D903209B
:1041300059E0314AD36923F08053D361DCE72F4B38
:1041400000221A66FFF724FE05462B4B1B6813F06E
:10415000007F06D0FFF71CFE401B0228F5D9032084
:1041600041E0236AB3F5803F1AD023494B6823F41A
:104170007413226A606A024313434B601F4B01228F
:104180001A66FFF705FE04461B4B1B6813F0007F01
:104190000ED1FFF7FDFD001B0228F5D9032022E018
:1041A000154A536823F40033A1680B435360DCE7DE
:1041B000002018E0002016E0012B16D00E4B5B68A3
:1041C00003F48031226A914211D103F47013626AC0
:1041D00093420ED1002006E001207047012002E04A
:1041E000012000E0002002B070BD0120FBE70120AB
:1041F000F9E70120F7E700BF00100240000042424B
:104200000F4B5B6803F00C02082A01D00D48704781
:10421000C3F383420C49885C13F4803F0BD0084BF6
:104220005B68C3F34043094AD35C064A02FB00F0D3
:10423000B0FBF3F07047064B03FB00F0704700BF84
:104240000010024000127A0054570008645700081A
:1042500000093D00002800F0A08070B50D4604461E
:10426000524B1B6803F007038B420BD24F4A136873
:1042700023F007030B431360136803F007038B421B
:1042800040F08D80236813F0020F17D013F0040F55
:1042900004D0474A536843F4E0635360236813F043
:1042A000080F04D0424A536843F460535360404AB5
:1042B000536823F0F003A1680B435360236813F0A5
:1042C000010F31D06368012B20D0022B25D0384A52
:1042D000126812F0020F64D035494A6822F00302D6
:1042E00013434B60FFF754FD0646314B5B6803F008
:1042F0000C036268B3EB820F16D0FFF749FD801BF9
:1043000041F288339842F0D9032045E0284A1268E8
:1043100012F4003FE0D101203EE0254A126812F07D
:10432000007FD9D1012037E0204B1B6803F0070341
:10433000AB420AD91D4A136823F007032B431360CD
:10434000136803F00703AB422DD1236813F0040F69
:1043500006D0174A536823F4E063E1680B435360C7
:10436000236813F0080F07D0114A536823F46053F1
:10437000216943EAC1035360FFF742FF0C4B5B68BE
:10438000C3F303130B4AD35CD8400B4B18600B4BA1
:104390001868FFF7B9FC002070BD012070470120AC
:1043A000FAE70120F8E70120F6E700BF002002400D
:1043B0000010024068570008080000200400002098
:1043C000014B1868704700BF0800002008B5FFF7D0
:1043D000F7FF044B5B68C3F30223034AD35CD84066
:1043E00008BD00BF001002407857000808B5FFF76D
:1043F000E7FF044B5B68C3F3C223034AD35CD84096
:1044000008BD00BF001002407857000870B582B0A8
:104410000024A446A6E0804DAA4210D007D97F4DC3
:10442000AA420CD005F58035AA4208D013E0A5F5C4
:104430008015AA4203D005F57025AA4207D18A68E3
:10444000002A58D0012A51D04361082403E0A5F581
:104450008015AA42F3D0BEF1FF0F4ED80646BEF13A
:10446000FF0F4CD84FEA8C0233680F25954023EAA2
:10447000050304FA02F2134333604B6813F0805FC4
:104480006ED0674B9A6942F001029A619B6903F012
:1044900001030193019B4FEA9C02951C614B53F869
:1044A00025600CF003039D000F23AB4026EA0306B2
:1044B0005D4B984229D003F58063984200F08E80CE
:1044C00003F58063984200F08B8003F58063984287
:1044D00019D004231AE0CC68BDE7CC680434BAE7ED
:1044E000CC680834B7E7CC680C34B4E7036108241F
:1044F000B1E70024AFE70424ADE7061DAFE7ACF158
:1045000008029200B0E7032300E00023AB403343EE
:104510000232444D45F822304B6813F4801F61D0BD
:10452000424A936843EA0E0393604B6813F4001FFA
:104530005ED03E4AD36843EA0E03D3604B6813F45F
:10454000003F5BD0394A536843EA0E0353604B681F
:1045500013F4803F58D0354A136843EA0E031360C2
:104560000CF1010C0A6832FA0CF353D0012303FA60
:104570000CF302EA030E33EA0202F1D14A68122A6E
:104580003FF649AF122A3FF666AF01A555F822F073
:104590003F440008D7440008E1440008F344000801
:1045A000574400085744000857440008574400087F
:1045B000574400085744000857440008574400086F
:1045C000574400085744000857440008574400085F
:1045D00057440008DB440008E7440008012395E73E
:1045E000022393E7114A936823EA0E0393609CE742
:1045F0000E4AD36823EA0E03D3609FE70B4A536841
:1046000023EA0E035360A2E7084A136823EA0E0365
:104610001360A5E702B070BD000022100000311049
:104620000010024000000140000801400004014069
:104630008368194201D001207047002070470AB1F9
:1046400001617047090401617047C36801EA030210
:1046500021EA030141EA02410161704708B590F87F
:104660002130DBB2022B03D004238363012008BD79
:104670000268136823F00E0313600268136823F0C6
:10468000010313600368194A934214D01432934211
:104690001FD0143293421ED0143293421ED01432D3
:1046A00093421ED01432934202D04FF0807203E046
:1046B0004FF4801200E001220D4B5A60012380F874
:1046C0002130002380F82030436B6BB198470020E5
:1046D000CDE71022F0E74FF48072EDE74FF48052FF
:1046E000EAE74FF48032E7E70020C0E70800024025
:1046F0000000024090F8210070470000074AD3688C
:1047000023F4E0631B041B0C000200F4E06003438D
:1047100043F0BF6343F40033D360704700ED00E023
:1047200000B5194BDB68C3F30223C3F1070CBCF1DE
:10473000040F28BF4FF0040C03F1040EBEF1060F66
:1047400018D9033B4FF0FF3E0EFA0CFC21EA0C0196
:1047500099400EFA03F322EA0303194300280BDB06
:104760000901C9B200F1604000F5614080F8001312
:104770005DF804FB0023E5E700F00F000901C9B272
:10478000024B1954F4E700BF00ED00E014ED00E027
:10479000002807DB00F01F02400901239340024A72
:1047A00042F82030704700BF00E100E00138B0F16E
:1047B000807F0BD24FF0E0235861054AF02182F848
:1047C00023100020986107221A617047012070476A
:1047D00000ED00E010B504460268136923F440536D
:1047E000C1680B43136183680269134342691A432A
:1047F0000168CB6823F4B05323F00C031343CB6060
:104800000268536923F4407381690B435361026862
:10481000134B9A4220D0FFF7D9FD024602EB8202E9
:1048200002EB820263689B00B2FBF3F20D48A0FB2F
:1048300002314909642303FB11231B013233A0FB1E
:1048400003235B0903F0F00202EB011203F00F03F4
:10485000216813448B6010BDFFF7C8FD0246DDE7F9
:10486000003801401F85EB512DE9F84305460F46FE
:1048700016469946DDF820802C68246837EA040340
:104880000CBF4FF0010C4FF0000CB4452DD1B8F126
:10489000FF3FF1D0B8F1000F05D0FFF779FAA0EB98
:1048A00009004045E8D92A6802F10C0353E8003FAB
:1048B00023F4D0730C3242E800310029F3D12A6886
:1048C00002F1140353E8003F23F00103143242E8DD
:1048D00000310029F3D1202385F8413085F842309A
:1048E000002385F84030032000E00020BDE8F88375
:1048F00060B310B5044690F8413013B3242384F814
:1049000041302268D36823F40053D3602046FFF778
:1049100061FF2268136923F490431361226853698D
:1049200023F02A0353612268D36843F40053D36011
:1049300000206064202384F8413084F842306063B2
:1049400010BD80F84030FCF797FDD7E70120704795
:104950002DE9F04182B01E4690F84130DBB2202BA9
:104960004BD104460D46904600294AD00AB9012091
:1049700044E000234364212380F84130FFF708FA24
:104980000746A4F82480A4F82680A368B3F5805FC6
:1049900002D04FF000080FE02369FBB14FF0000890
:1049A0000AE038F8023B2268C3F308035360E28C44
:1049B00092B2013A92B2E284E38C9BB28BB1009640
:1049C0003B46002280212046FFF74EFFD8B9002D3C
:1049D000E7D015F8012B23685A60E8E7A8460025C0
:1049E000EAE700963B46002240212046FFF73CFFC5
:1049F00058B9202384F8413000E0022002B0BDE81D
:104A0000F0810120FAE70320F8E70320F6E781624E
:104A10008285C28500234364222380F842300369E3
:104A200023B10268D36843F48073D360026853698A
:104A300043F0010353610268D36843F02003D3605D
:104A40000020704708B590F84230DBB2202B08D127
:104A500049B10AB9012008BD00230363FFF7D7FF5E
:104A6000F9E70220F7E70120F5E77047FFF7FDFFC0
:104A70000B480C490C4A002302E0D458C4500433BC
:104A8000C4188C42F9D3094A094C002301E0136091
:104A90000432A242FBD300F037F8FCF737FB704733
:104AA000000000205C000020C45700085C000020CB
:104AB00078080020FEE7000000B59BB0009104914B
:104AC0006FF000410591029105490391694600F09C
:104AD00093F90022009B1A701BB05DF804FB00BF25
:104AE0000802FFFF13460A46014602480068FFF726
:104AF000E3BF00BF0C00002003460244934200D1F4
:104B0000704703F8011BF9E770B500260C4D0D4CFA
:104B1000641BA410A64209D100F092FC00260A4DA5
:104B20000A4C641BA410A64205D170BD55F8043B85
:104B300098470136EEE755F8043B98470136F2E70F
:104B4000BC570008BC570008BC570008C0570008F5
:104B50007047704738B50546002940D051F8043CED
:104B60000C1F002BB8BFE41800F0DEF81C4A1368D5
:104B700033B9636014602846BDE8384000F0DAB805
:104B8000A34208D9206821188B4201BF19685B68CD
:104B900009182160EDE71A465B680BB1A342FAD908
:104BA00011685018A0420BD120680144501883426C
:104BB0001160E0D118685B68084410605360DAE760
:104BC00002D90C232B60D6E7206821188B4201BF45
:104BD00019685B680918216063605460CBE738BDD1
:104BE0007008002070B50F4E0C463168054611B9AB
:104BF00000F0B6FB30602146284600F0B1FB431CB4
:104C000003D14FF0FF34204670BDC41C24F00304D0
:104C1000A042F8D0211A284600F0A2FB0130F2D1C0
:104C2000EFE700BF6C0800202DE9F843CD1C25F00C
:104C3000030508350C2D38BF0C25002D064601DB79
:104C4000A94204D90C2333600020BDE8F883DFF8C3
:104C5000D48000F069F8D8F800301C4644BB2946DF
:104C60003046FFF7BFFF431C044658D1D8F8004038
:104C70002746002F43D1002C4BD0236839463046BD
:104C800004EB030900F06CFB814542D121683046FA
:104C90006D1A2946FFF7A6FF01303AD023682B444E
:104CA0002360D8F800305A6862BBC8F800700FE083
:104CB0002268521B20D40B2A17D96119A342256000
:104CC00018BF5960636808BFC8F8001062514B6094
:104CD000304600F02FF804F10B00231D20F00700F0
:104CE000C21A1CBF1B1AA350AFE76268A3420CBFD5
:104CF000C8F800205A60EBE723466468AEE73C46FC
:104D00007F68B6E71A465B68A342FBD10023536075
:104D1000DEE70C233046336000F00CF894E70560C2
:104D2000D6E700BF700800200148FFF711BF00BFA1
:104D3000680800200148FFF70CBF00BF680800208A
:104D40002DE9F0471F468E688246BE420C469046CB
:104D50000B682DD8B1F90C2012F4906F26D065693C
:104D6000096905EB4505A3EB010905EBD5757B1C2E
:104D70004B446D109D4238BF1D46530527D529462B
:104D8000FFF752FF064660B34A46216900F006FB72
:104D9000A38923F4906343F08003A38126614E44EA
:104DA00026603E466561A5EB0905A560BE4200D9B7
:104DB0003E4632464146206800F0B8FA0020A3681B
:104DC0009B1BA360236833442360BDE8F0872A4619
:104DD00000F0F2FA06460028E0D150462169FFF7BC
:104DE000B9FE0C23CAF80030A3894FF0FF3043F01E
:104DF0004003A381E9E700002DE9F04F98468B8935
:104E000007461B060D4614469DB010D50B6973B9B5
:104E10004021FFF709FF2860286130B90C233B606F
:104E20004FF0FF301DB0BDE8F08F40236B610023D1
:104E3000099320238DF8293030234FF00109CDF854
:104E40000C80DFF898818DF82A3023469A4613F8B3
:104E5000012B0AB1252AF9D1BAEB040B0BD05B4622
:104E6000224629463846FFF76BFF013000F0A78045
:104E7000099A5A4409929AF80030002B00F09F805A
:104E800000234FF0FF32CDE905230AF1010A049314
:104E900007938DF853301A935446052214F8011BDA
:104EA0004E4800F06DFA049AD8B9D00644BF2023CA
:104EB0008DF85330110744BF2B238DF853309AF8E7
:104EC00000302A2B15D0544600204FF00A0C079AC8
:104ED000214611F8013B303B092B4BD9B0B1079269
:104EE00014E0A0EB080309FA03F31343A24604936A
:104EF000D2E7039B191D1B680391002BBBBF5B42CC
:104F000042F0020207930793B8BF049223782E2B36
:104F10000AD163782A2B32D1039B02341A1D1B68F5
:104F2000039243EAE3730593DFF8B4A003225046EB
:104F3000217800F025FA38B14022049BA0EB0A004A
:104F4000824013430134049314F8011B06222548C0
:104F50008DF8281000F014FA002836D0224B1BBB25
:104F6000039B073323F0070308330393099B334460
:104F700009936AE70C4601200CFB0232A8E70023E4
:104F80004FF00A0C194601340593204610F8012B06
:104F9000303A092A03D9002BC6D00591C4E704464C
:104FA00001230CFB0121F0E703AB00932A463846AE
:104FB0000E4B04A9AFF30080421C0646D6D1AB8944
:104FC0005B063FF52DAF09982CE703AB00932A460B
:104FD0003846064B04A900F07DF8EDE7805700083D
:104FE000865700088A57000800000000414D00085D
:104FF0002DE9F047164698468A680B6907469342A2
:10500000B8BF1346336091F843200C46DDF820907A
:105010000AB1013333602368990642BF3368023313
:105020003360256815F0060506D104F1190AE36816
:1050300032689B1AAB422BDC94F843302268003B69
:1050400018BF0123920630D44146384604F143028A
:10505000C847013023D02368226903F00603042BDC
:1050600014BF002533684FF0000608BFE56804F15F
:105070001A0408BFED1A54F8123C08BF25EAE5757A
:105080009342C4BF9B1AED18B5421AD1002008E024
:105090000123524641463846C847013003D14FF0FC
:1050A000FF30BDE8F0870135C1E73020E11881F815
:1050B00043005A1C94F845102244023382F84310EE
:1050C000C2E70123224641463846C8470130E6D0B0
:1050D0000136D9E72DE9FF470F7E9146782F8046AC
:1050E0000C469A460C9E01F1430207D8622F0AD85B
:1050F000002F00F0DD80582F00F0C38004F142063D
:1051000084F842703AE0A7F16303152BF6D801A1A9
:1051100051F823F06D51000881510008FD5000083E
:10512000FD500008FD500008FD50000881510008A6
:10513000FD500008FD500008FD500008FD5000081B
:10514000975200080F5200084F520008FD50000807
:10515000FD500008B9520008FD5000080F52000829
:10516000FD500008FD5000085752000833681A1D12
:105170001B68326004F1420684F842300123A8E043
:1051800031682368081D30601E0601D50D6803E0F4
:105190005D06FBD5B1F90050002D616878DA2D204D
:1051A000002984F84300A1602DDA0A235D486D428E
:1051B0001646B5FBF3F103FB1157C75D06F8017DF9
:1051C0002F46BB420D46F4D9082B0BD12368DF07CD
:1051D00008D5236961689942DEBF302306F8013C97
:1051E00006F1FF36921B22614B4621464046CDF820
:1051F00000A003AAFFF7FCFE01306FD14FF0FF3093
:1052000004B0BDE8F08723F004032360CDE72168F4
:105210003368080653F8045B02D4490648BFADB2B0
:105220006F2F336014BF0A2308233E48002184F8FF
:1052300043106668002EA660BADB216821F00401E5
:105240002160002DB4D1002EB2D11646BCE72368F0
:1052500043F0200323607827334884F8457023689F
:1052600031681F0651F8045B02D45F0648BFADB237
:105270003160D90744BF43F0200323601DB11023E0
:10528000D4E72848E9E7236823F020032360F6E702
:105290000A232448CDE733682568181D616930600A
:1052A0002E061B6801D5196002E06806FBD519803F
:1052B00000231646236197E7336800211A1D3260E8
:1052C0001E686268304600F05BF808B1801B6060C1
:1052D00063682361002384F8433085E732464946FA
:1052E00040462369D047013088D023689B0714D4F7
:1052F000E068039B9842B8BF184681E70123324615
:1053000049464046D04701303FF478AF0135E36865
:1053100003995B1AAB42F1DCEAE7002504F11906B8
:10532000F5E700BF91570008A2570008884210B562
:1053300001EB020402D98442234607D8431EA1424E
:1053400008D011F8012B03F8012FF8E701460244B9
:105350008A4200D110BD13F8014D02F8014DF7E764
:1053600038B50023054D044608462B6000F05AF876
:10537000431C02D12B6803B1236038BD64080020B0
:10538000034610B5C9B202449342184601D1002029
:1053900003E0047801338C42F6D110BD0A449142F7
:1053A00000F1FF3300D1704710B511F8014B914265
:1053B00003F8014FF9D110BD2DE9F04180461546A3
:1053C0000C4621B91146BDE8F041FFF72DBC2AB9C2
:1053D000FFF7C0FB00242046BDE8F08100F01AF87A
:1053E0008542064602D8B5EB500FF4D82946404610
:1053F000FFF71AFC07460028ECD0B5422A462146A2
:1054000028BF3246FFF7CAFF21464046FFF7A2FBFE
:105410003C46E0E751F8043C181F002BBCBF0B587A
:10542000C0187047044A05491368002B08BF0B4693
:10543000184410601846704774080020780800204F
:10544000F8B500BFF8BC08BC9E467047F8B500BF71
:08545000F8BC08BC9E46704741
:105458003E2838003E0A0E003E021C023E000000B4
:10546800384444448800FC44444438E1121212E1B0
:105478000023101090600708080807000C0A0908A4
:105488000800000048523A202533640A0000000052
:105498005468616E684D61692D4475795472756FF1
:1054A8006E6700004865617274000000526174659F
:1054B80000000000260000004F78696D657472795D
:1054C800000000006333180C66630000FFFFFF0054
:1054D8000000000000000000002F0000000007008E
:1054E800070000147F147F1400242A7F2A12006208
:1054F80064081323003649552250000005030000B4
:1055080000001C224100000041221C000014083E3B
:1055180008140008083E0808000000A06000000801
:105528000808080800006060000000201008040255
:10553800003E5149453E0000427F40000042615113
:105548004946002141454B31001814127F100027AD
:1055580045454539003C4A49493000017109050370
:1055680000364949493600064949291E00003636A1
:105578000000000056360000000814224100001404
:1055880014141414000041221408000201510906E1
:1055980000324959513E007C1211127C007F494962
:1055A8004936003E41414122007F4141221C007F93
:1055B80049494941007F09090901003E4149497AA1
:1055C800007F0808087F0000417F4100002040411B
:1055D8003F01007F08142241007F40404040007F87
:1055E800020C027F007F0408107F003E4141413ECB
:1055F800007F09090906003E4151215E007F091913
:1056080029460046494949310001017F0101003F0F
:105618004040403F001F2040201F003F4038403F8F
:1056280000631408146300070870080700615149F3
:10563800454300007F41410000552A552A55000086
:1056480041417F0000040201020400404040404004
:10565800000001020400002054545478007F48449C
:10566800443800384444442000384444487F0038D3
:105678005454541800087E0901020018A4A4A47CFC
:10568800007F080404780000447D400000408084C6
:105698007D00007F102844000000417F4000007C0E
:1056A80004180478007C080404780038444444381A
:1056B80000FC242424180018242418FC007C080466
:1056C800040800485454542000043F444020003C3F
:1056D8004040207C001C2040201C003C4030403CC6
:1056E800004428102844001CA0A0A07C0044645456
:1056F8004C44141414141414F8FCFEFFFFFFFEFCB1
:10570800F8F0E0F0F8FCFEFFFFFFFEFCF801071FD1
:105718003F7FFFFFFFFFFFFFFFFFFFFFFF7F3F1FF1
:1057280007010000000000000103070F0F0F070327
:1057380001000000000000003F065B4F666D7D071A
:105748007F6F000018242F56626D000002030405C5
:10575800060708090A0B0C0D0E0F101001020000B5
:105768000000000000000000010203040607080909
:105778000000000001020304232D302B2000686C78
:105788004C0065666745464700303132333435365C
:105798003738394142434445460030313233343595
:0C57A800363738396162636465660000C2
:0857B4005CA9FF7F0100000069
:0457BC005D10000874
:0457C0003510000898
:1057C40001000000100000000024F400100000207C
:1057D400000000002C07002094070020FC07002094
:1057E40000000000000000000000000000000000B5
:1057F40000000000000000000000000000000000A5
:105804000000000000000000000000000000000094
:0C58140000000000000000000000000088
:0400000508004A6D38
:00000001FF
